:0400000080313728EC
:100008007E14803120007F08F1002100111E2B286A
:100018002000111E2B28630865060319252865088A
:10002800C03E86008701010823009A000130F000D5
:1000380070082000E50720306502031C2B28E50125
:100048002B2865086306031D2B28210011122000A8
:10005800911C332891100130FA070030FB3D7108DC
:10006800FF007E10090080313928FA01FB01593060
:1000780084000030850013308A31FF228031A0309F
:1000880084000030850046308A31FF228031873174
:10009800FC27EC007E10200080315228F03021002F
:1000A80099000330950023008C01203020008C003B
:1000B8003F3024008C001F3021008C008B019D01F3
:1000C8002200970184309D00823023009E009D010C
:1000D8001E159F111E1210309B009C019E169D1725
:1000E8001D162100911211122000911211122300E5
:1000F8001F121F102000E301E5018B170B178B312E
:10010800EA2380318B314323803105302000D6002B
:100118000F30D500F430D400D40B9028D50B90289C
:10012800D60B90288B310C2380318E31C12680313B
:10013800CB302000D600ED30D5004C30D400D40BA5
:10014800A328D50BA328D60BA32800328B311B2359
:10015800803129302000D6009630D500A630D40052
:10016800D40BB428D50BB428D60BB4288C3106246C
:1001780080318F3127278031230019082000D400CF
:100188005408EC00FF30D4005408EC002000911E05
:100198004329230019082000D4005408D80044300B
:1001A80058060319DB2864305806031DDC28E401CF
:1001B800473058060319E42867305806031DE62817
:1001C8000130FF281B305806031DEC28E4014329A1
:1001D800493058060319F42869305806031DF628D3
:1001E8006430FF28483058060319FE28683058063E
:1001F800031D03290330D4005408E40043296C0884
:10020800031D43295630580603190E29763058061F
:10021800031D12298E31C126803143295A3020000E
:10022800580603191B297A305806031D3C29043047
:10023800D4005408E4000030DC000030DB0000305B
:10024800DA000030D9000030E0000030DF00003074
:10025800DE000030DD0000302100E3000030E20065
:100268000030E1000030E0002000E101E201432914
:100278003F305806031D43298B310C238031200061
:100288006C08640603197E296408D4005408EC003D
:1002980072295530F5008530F6008B31782380318E
:1002A8007E298830F5008530F6008B31782380313F
:1002B8007E297830F5008530F6008B31782380313F
:1002C80000302100B9000030B8000030B70000301D
:1002D800B600FF30E400FF30E5007E2920006C08FE
:1002E800003A03195529013A03195D29053A0319FA
:1002F8004D297E29043020006C06031D512A8B31BC
:10030800A0238031003A031983298431762480316F
:1003180021002A082000D40021002B082000D50045
:100328000030D51BFF30D600D7005408D907550830
:10033800DA3D5608DB3D5708DC3D21002C0820003B
:10034800D40021002D082000D5000030D51BFF3037
:10035800D600D7005408DD075508DE3D5608DF3DB6
:100368005708E03D21002E082000D40021002F0866
:100378002000D5000030D51BFF30D600D700540828
:100388002100E007200055082100E13D2000560823
:100398002100E23D200057082100E33D0130200004
:1003A800E1070030E23D6208803AD4008030540210
:1003B800031DE029FA306102031CCA2820006108E5
:1003C800F2006208F300890D893B8909F400F50001
:1003D8005C08F9005B08F8005A08F7005908F600AD
:1003E80086313926803175082000DC007408DB006E
:1003F8007308DA007208D9006108F2006208F30095
:10040800890D893B8909F400F5006008F9005F0847
:10041800F8005E08F7005D08F6008631392680315D
:1004280075082000E0007408DF007308DE00720819
:10043800DD006108F2006208F300890D893B890933
:10044800F400F50021006308F9006208F80061086B
:10045800F7006008F60086313926803175082100DA
:10046800E3007408E2007308E1007208E00020006D
:100478005A08E7005908E6005E08E9005D08E80048
:10048800210061082000EB00210060082000EA003C
:100498008C31222480312000552A05306C06031D3A
:1004A800572AE401CA2803306C06031D6B2A8B31D6
:1004B800A0238031003A03195B2A843176248031E5
:1004C80083318D238031873136278031CA28200037
:1004D8006C03031D882A8B13FA01FB018B178431E7
:1004E8007624803183318D2380318D319825803178
:1004F800003A0319882A87313627803103302000D3
:10050800D4005408E400CA28643020006C06031D97
:10051800CA288431762480318231972280312000A4
:10052800E401EC01CA28A9302000D0008530D100B0
:10053800AD30D2008530D30083318D2382318030B5
:10054800F5008530F6008B317823823121002108AF
:100558002000AA00210020082000A9008B318C234C
:1005680082319630F5008530F6008B317823823160
:10057800210022082000CA00210023082000CB0007
:10058800890D893B8909CC00CD008D31D725823171
:1005980020005108F6005008F5008B31782382318D
:1005A800210024082000CA00210025082000CB00D3
:1005B800890D893B8909CC00CD008D31D725823141
:1005C80020005308F6005208F5008B317823823159
:1005D800210026082000CA00210027082000CB009F
:1005E800890D893B8909CC00CD008D31D725823111
:1005F8001630A03E86008701403FF200413FF300DD
:10060800423FF400433FF5008531B125823173083C
:100618002000CF007208CE009C30F5008530F6002F
:100628008B317823823120004E08CA004F08CB0056
:10063800CC01CD018D31D72582316F30F500853061
:10064800F6008B317823823121002B08F3002A0829
:10065800F20020006708F5006608F4008731A82733
:10066800823172082000CA007308CB00890D893BCB
:100678008909CC00CD008E311B268231200051081B
:10068800F6005008F5008B317823823121002D08BF
:10069800F3002C08F20020006908F5006808F4004F
:1006A8008731A827823172082000CA007308CB005E
:1006B800890D893B8909CC00CD008E311B268231FA
:1006C80020005308F6005208F5008B317823823158
:1006D80021002F08F3002E08F20020006B08F50017
:1006E8006A08F4008731A827823172082000CA00FE
:1006F8007308CB00890D893B8909CC00CD008E3168
:100708001B2682315F30F5008530F6008B31782367
:1007180008002100A31B982B23082000AD0021000E
:1007280022082000AC00A72B210022092000A400E9
:10073800210023092000A500A40A0319A50A2408FA
:10074800AC002508AD002C08B2002D08B300890DB7
:10075800893B8909B400B5002100A51BBB2B2508DE
:100768002000AF00210024082000AE00CA2B210081
:1007780024092000A400210025092000A500A40ABE
:100788000319A50A2408AE002508AF002E08B600F4
:100798002F08B700890D893B8909B800B9002100E5
:1007A800A71BDE2B27082000B10021002608200007
:1007B800B000ED2B210026092000A4002100270904
:1007C8002000A500A40A0319A50A2408B0002508DA
:1007D800B1003008BA003108BB00890D893B89098E
:1007E800BC00BD003508F5003408F4003308F300F8
:1007F8003208F2003508F9003408F8003308F70029
:100808003208F6008C31F524833175082000B500D4
:100818007408B4007308B3007208B2003908F50010
:100828003808F4003708F3003608F2003908F900F0
:100838003808F8003708F7003608F6008C31F52438
:10084800833175082000B9007408B8007308B70030
:100858007208B6003D08F5003C08F4003B08F300B8
:100868003A08F2003D08F9003C08F8003B08F70098
:100878003A08F6008C31F524833175082000BD0054
:100888007408BC007308BB007208BA003A08A400D8
:100898003B08A5003C08A6003D08A700320836071B
:1008A800A8003308373DA9003408383DAA003508A8
:1008B800393DAB002808A4072908A53D2A08A63D0C
:1008C8002B08A73D27082100B90020002608210091
:1008D800B800200025082100B700200024082100C6
:1008E800B60008003B302000A3002308A0002830F1
:1008F800A4002408A1000E30A5002508A200683035
:100908008D315B2584318B137B082100A1007A0887
:10091800A0008B1720002908A300A4012808A5001F
:10092800A6012508A600A501230825042100A20088
:100938002000240826042100A30020002B08A3007F
:10094800A4012A08A500A6012508A600A5012308D8
:1009580025042100A4002000240826042100A50065
:1009680020002D08A300A4012C08A500A601250835
:10097800A600A501230825042100A60020002408BC
:1009880026042100A70020002F08A300A4012E0898
:10099800A500A6012508A600A50123082504210015
:1009A800A8002000240826042100A90020003108FE
:1009B800A300A4013008A500A6012508A600A501EA
:1009C800230825042100AA00200024082604210069
:1009D800AB0020003308A300A4013208A500A6013B
:1009E8002508A600A501230825042100AC00200045
:1009F800240826042100AD0020003508A300A40126
:100A08003408A500A6012508A600A5012308250489
:100A18002100AE002000240826042100AF000800B1
:100A28001D341E341F34203421342234233424341A
:100A3800253426342734283429342A342B342C34CA
:100A48002D342E342F34303431343234333434347A
:100A58003534373438346334643465346634673451
:100A6800683469346A341A34373438347434FF34A7
:100A78000034003490340034A434F0342834003482
:100A88004334613474346134703475346C34743480
:100A98002034563431342E34303433340D340A345F
:100AA80000345A34653472346F342034473479341E
:100AB80072346F342E340D340A34003445345234D1
:100AC80052344F3452343A34203449343234433473
:100AD8000D340A34003420344734793472346F3496
:100AE800203478343D34003452344534413444346D
:100AF80059340D340A3400342034543428346D34D5
:100B0800733429343D340034493444344C34453446
:100B18000D340A34003456344434443420343D34DB
:100B28002034003420344734203478343D340034C1
:100B38002034473474343D34003456340D340A3488
:100B480000342D342D342D340034203479343D34A0
:100B5800003420347A343D34003400302000B700AB
:100B68000030B6000030B5000030B4000030BB00E3
:100B78000030BA008030B9000030B8000030B3004F
:100B88000030B2000030B1000F30B0003808A000CB
:100B98003908A1003A08A2003B08A3003408A400C1
:100BA8003508A5003608A6003708A7000130A43587
:100BB800A50DA60DA70D890BDB2D2408A007250878
:100BC800A13D2608A23D2708A33D3308AB00320803
:100BD800AA003108A9003008A8000130B00200308E
:100BE800B13BB23BB33B280AFD2DA035A10DA20DA8
:100BF800A30D890BF92D2308AF002208AE002108A8
:100C0800AD002008AC002F087502031D152E2E0814
:100C18007402031D152E2D087302031D152E2C08B2
:100C28007202031C272E3808B4073908B53D3A0864
:100C3800B63D3B08B73D2C08F2022D08F33B2E08C1
:100C4800F43B2F08F53B0130BB36BA0CB90CB80C95
:100C5800890B282E3B083A0439043804031DCA2D91
:100C68003508F3003408F20008002000A201F51F3F
:100C78004A2EF209F309F409F509F20A0319F30AED
:100C88000319F40A0319F50AA201A20AF91F5B2E37
:100C9800F609F709F809F909F60A0319F70A031911
:100CA800F80A0319F90A0130A0002008A20600304A
:100CB800A6000030A5000030A4000030A30075088D
:100CC8007404730472040319A42EA101A10AF51B6C
:100CD800792E0130F235F30DF40DF50D890B6E2EDA
:100CE8000130A0002008A1076B2E0130A335A40D08
:100CF800A50DA60D890B7A2E75087902031D8E2E77
:100D080074087802031D8E2E73087702031D8E2E39
:100D180072087602031C992E7208F6027308F73BD4
:100D28007408F83B7508F93B23140130F536F40CC8
:100D3800F30CF20C890B9A2E0130A102031D792EB7
:100D480022080319B22EA309A409A509A609A30A12
:100D58000319A40A0319A50A0319A60A2608F50007
:100D68002508F4002408F3002308F20008002000F6
:100D7800B31FD32E2D308C313F248631200030090B
:100D8800C6003109C7003209C8003309C900C60ABC
:100D98000319C70A0319C80A0319C90ADB2E33083D
:100DA800C9003208C8003108C7003008C600003042
:100DB800F5000030F4000030F3006430F200490818
:100DC800F9004808F8004708F7004608F600863199
:100DD8003926863173082000AA007208A9000A3053
:100DE800AB000030AC0034308C3180248631343094
:100DF800F5000030F6008B31782386312E308C31A7
:100E08003F2486316430F2000030F30020004708A8
:100E1800F5004608F4008C31C92486317308200097
:100E2800C5007208C400003045020A3003194402A4
:100E38000318222F30308C313F248631200045089A
:100E4800A1004408A0000A30A2000030A3003430FA
:100E58008E315F2686313430F5000030F6008B3154
:100E680078230800210021082000A1002100200883
:100E78002000A0008C31A424873121002308200001
:100E8800A100210022082000A0008C31A424873171
:100E9800210025082000A100210024082000A0002E
:100EA8008C31A4248731210027082000A1002100CB
:100EB80026082000A0008C31A424873121002B08AB
:100EC800F3002A08F20020006708F5006608F4001D
:100ED8008731A827873173082000A1007208A00075
:100EE8008C31A424873121002D08F3002C08F2004E
:100EF80020006908F5006808F4008731A8278731C1
:100F080073082000A1007208A0008C31A424873146
:100F180021002F08F3002E08F20020006B08F500CE
:100F28006A08F4008731A827873173082000A100D8
:100F38007208A0008C31A42487315F30F500853019
:100F4800F6008B31782308007308803AF600803069
:100F58007602031DB12F01307202031CCC2FF51F3E
:100F6800EE2F7408FF3EF8007F30753DF9007308D6
:100F7800803AF6007908803A7602031DC52F780872
:100F88007202031CEE2FFF30F2007F30F3000800DE
:100F98007508803AF60080307602031DD52F01309F
:100FA8007402031CEE2F7408003EF8008030753D73
:100FB800F9007908803AF6007308803A7602031D32
:100FC800E72F72087802031CEE2F0030F200803001
:100FD800F30008007409F6007509F700F60A03190A
:100FE800F70A72087607F2007308773DF3000800E5
:020FF800FF34C4
:1015E0008B3113232400161408008B31132324009D
:1015F000961408008B31132324001615080064008C
:1016000080010131890B002B0034F2008B31132350
:1016100072082400910008004430F5008530F6007F
:101620008B3178230800240016081F39031D132B63
:10163000141D0800132B21008C140C1528302400D5
:101640009500960113309200C03094000800F70016
:101650008A31F0228B31F20177088B3134238B31C0
:1016600076088B3105230800F4007435F300730805
:10167000F5007208F3007308F5078B311323750822
:1016800024009100080020009C017D309B009A01FD
:1016900007309C009110FA01FB01210091140B17F7
:1016A0008B170800F6000F30F5007508F6050A30B4
:1016B0007602031C5D2B37305E2B3030F500750849
:1016C000F60776088C313F2408002000A300A10112
:1016D000A2017808A0002008F60023088B312723F8
:1016E0008B3179088B3105238B318A31FA2208003E
:1016F0007508840076088500120003190800750833
:1017000084007608850000088C313F248B3101303D
:10171000F5070030F63D782B20002A08A1002908A3
:10172000A0000A30A2000030A3002B308E315F26CB
:101730008B312B30F5000030F6008B317823080018
:101740003A302000A3002308A0002530A40024087C
:10175000A100A201A20A68308D315B258B312000E7
:10176000251CB42B0130080000300800F50064008F
:1017700023009518B72B7508F200F3017208910049
:10178000730892003F30F400740895051514031097
:10179000151803140030093D13080800F3008B31BD
:1017A00013238B31240096158B3113238B312400A6
:1017B0001108F2007208F4008B3113238B31730887
:1017C0000319E52B24009612E72B24009616161613
:1017D000740808006630F6007608F700F801063055
:1017E00078020318080078088B31B6238B31F60095
:1017F000770886008701760881000130F6007608B8
:10180000F7070130F6007608F807EF2B2000A50156
:101810007530A3002308A0002530A4002408A100EF
:10182000A201A20A68308D315B258C31683020001E
:101830002506031908006230F5008530F6008B316B
:10184000782308006630F6007608F700F8010630C5
:101850007802031808007708860087010108F6005F
:101860007608F20078088C315D248C310130F60066
:101870007608F7070130F6007608F807272CF30002
:1018800020006308013EF2007208F4002030740268
:101890000318F4017408650603194A2C7308F20052
:1018A0006308C03E86008701720881007408F20058
:1018B0007208E300210011160800F50023009518B6
:1018C0005E2C7508F300F40173089100740892000F
:1018D000720893003F30F300730895052000031051
:1018E0008B1B03148B132300151555309600AA305B
:1018F0009600951415112000031C08008B17080092
:101900002000AF002F08AD002D08AE00AA1F982CB4
:101910002D30AD002F08860087012D088100013091
:10192000AD002D08AF07A909AA09A90A0319AA0A37
:101930002A08A1002908A0002C08A3002B08A20057
:101940002F088E315F26080020002108A300200800
:10195000A200230E0F39A200A30122088B315223CB
:101960008C31200021088B3152238C31200021083A
:10197000A3002008A2000430A336A20C890BBC2CC3
:1019800022088B3152238C31200020088B315223C6
:101990000800720873040319F02CF701F70AF31B0F
:1019A000DB2C0130F235F30D890BD22C0130F6001F
:1019B0007608F707CF2C73087502031DE12C720817
:1019C0007402031CE72C7208F4027308F53B013023
:1019D000F336F20C890BE82C0130F702031DDB2CE7
:1019E0007508F3007408F200080000302000A3001E
:1019F0000030A2000030A1000030A000721C092DB0
:101A000076082000A0077708A13D7808A23D790854
:101A1000A33D0130F635F70DF80DF90D890B0A2DB0
:101A20000130F536F40CF30CF20C890B112D75080E
:101A3000740473047204031DFE2C20002308F500B7
:101A40002208F4002108F3002008F2000800F80141
:101A5000F901720873040319562DF701F70AF31BF5
:101A60003B2D0130F235F30D890B322D0130F6009C
:101A70007608F7072F2D0130F835F90D890B3C2D2D
:101A800073087502031D462D72087402031C4D2D48
:101A90007208F4027308F53B78140130F336F20C47
:101AA000890B4E2D0130F702031D3B2D7908F30001
:101AB0007808F2000800F90020002008F8007808F3
:101AC000F60079088B3127238D318A31F5228D314B
:101AD000F201F20A79088B3134238D31200022087B
:101AE000A203F80002307802031C862D01308B31EE
:101AF000CE238D31F8002000210886008701780868
:101B000081000130F8007808A1076E2D00308B317C
:101B1000CE238D31F8002000210886008701780847
:101B200081000130F8007808A1078A31FA22080004
:101B30003C30840085308500003FF200013FF30017
:101B4000023FF400033FF500210039087502031D30
:101B5000B32D38087402031DB32D37087302031D1B
:101B6000B32D360872020318B72D0130080040303B
:101B7000840085308500003FF200013FF300023F02
:101B8000F400033FF50075083902031DD12D7408D8
:101B90003802031DD12D73083702031DD12D7208A1
:101BA00036020318D52D013008000030080000303F
:101BB000F5000030F4000030F3003230F200200075
:101BC0004D08F9004C08F8004B08F7004A08F600E9
:101BD0008C31F5248D3175082000CD007408CC00BF
:101BE0007308CB007208CA000030F5000030F40022
:101BF0000430F3000030F2004D08F9004C08F80002
:101C00004B08F7004A08F600863139268D317508F1
:101C10002000CD007408CC007308CB007208CA0005
:101C20004D08B3004C08B2004B08B1004A08B000A0
:101C30008631BB2608000030F5000030F400023089
:101C4000F3007130F20020004D08F9004C08F80054
:101C50004B08F7004A08F6008C31F5248E317508E0
:101C60002000CD007408CC007308CB007208CA00B5
:101C70000030F5000030F4000430F3000030F200D2
:101C80004D08F9004C08F8004B08F7004A08F60028
:101C9000863139268E3175082000CD007408CC00BD
:101CA0007308CB007208CA004D08B3004C08B2009C
:101CB0004B08B1004A08B0008F319127080020007E
:101CC000A8002108A6002008A5002308F300220888
:101CD000F2002608F5002508F4008D3127258E3105
:101CE00073082000A6007208A5000130A400240893
:101CF000A80725082604031D652E280886008701ED
:101D000081010130A8022308F3002208F200210813
:101D1000F5002008F4008C31C9248E3172082000AF
:101D2000A4002408A7002308F3002208F2002108D9
:101D3000F5002008F4008D3127258E31730820002E
:101D4000A1007208A0000A302702031CAB2E073046
:101D5000A4002408A7073030A4002408A7072708F8
:101D6000A400280886008701240881000130A80209
:101D700020082104031D832E0130A4002408A80795
:101D80000800E03021009E00C230220097007D3024
:101D900021009D0005302000CC000F30CB00F43036
:101DA000CA00CA0BD12ECB0BD12ECC0BD12E2100C9
:101DB0009D149D18D92E1C082000D20021001B085C
:101DC0002000D1008F30F5008530F6008B3178236C
:101DD0008E31200051085204031DF62EA530F50067
:101DE0008530F6008B3178238E311C2F200051086E
:101DF000F2005208F300F401F5010030F90003305D
:101E0000F8003330F7003330F600863139268E3152
:101E100075082000D0007408CF007308CE00720847
:101E2000CD005008B3004F08B2004E08B1004D0875
:101E3000B0008631BB268E31A130F5008530F6002A
:101E40008B31782321009D01220097010800193071
:101E50002000A4002408F8003F30A5002508F90060
:101E600068308B3165238F311B302000A40024089B
:101E7000F8001830A5002508F90068308B3165237B
:101E80008F311C302000A4002408F8001830A50071
:101E90002508F90068308B3165238F312000A601B9
:101EA000A701200027088500260884001430840735
:101EB0008530853D0008A4002408A8000130A6074D
:101EC0000030A73D280A03196F2F2808A400240812
:101ED000F800F90168308B3165238F31512F6B3059
:101EE0002000A4002408F8000230A5002508F9000D
:101EF00068308B3165238F316C302000A4002408BA
:101F0000F800F90168308B3165238F3138302000BB
:101F1000A4002408F800F901F90A68308B31652320
:101F200008002000B31FA92F2D308C313F248F31A2
:101F300020003009C6003109C7003209C800330942
:101F4000C900C60A0319C70A0319C80A0319C90A2E
:101F5000B12F3308C9003208C8003108C700300863
:101F6000C6000030F5000030F4000030F3000A3005
:101F7000F2004908F9004808F8004708F700460849
:101F8000F600863139268F3173082000AA007208C6
:101F9000A9000A30AB000030AC0034308C31802412
:101FA0008F313430F5000030F6008B3178238F31DB
:101FB0002E308C313F248F310A30F2000030F30094
:101FC00020004708F5004608F4008C31C9248F3101
:101FD00073082000C5007208C4004508A100440829
:101FE000A0000A30A2000030A30034308E315F26FA
:101FF0008F313430F5000030F6008B317823080043
:020000040001F9
:04000E00E4EFFFFE1E
:10E000000000000000000000000000000000000010
:00000001FF
