:0400000080313728EC
:10000600FF347E14803120007F08F1002100111E8C
:100016002B282000111E2B286508670603192528A2
:100026006708A03E86008701010823009A00013078
:10003600F00070082000E70720306702031C2B2819
:10004600E7012B2867086506031D2B2821001112DE
:100056002000911C332891100130FA070030FB3D37
:100066007108FF007E10090080313928FA01FB0172
:10007600E301E401E501E601E701A0308400003078
:10008600850048308B311523803180310320E8000C
:100096007E102000813194291D341E341F342034F3
:1000A6002134223423342434253426342734283486
:1000B60029342A342B342C342D342E342F34303436
:1000C60031343234333434343534373438346334B9
:1000D6006434653466346734683469346A341A348F
:1000E6001D341E341F342034213422342334243466
:1000F600253426342734283429342A342B342C3416
:100106002D342E342F3430343134323433343434C5
:10011600353463346434653466346734683469343A
:100126006A34373438347434FF340034003490344D
:100136000034A434F034283400344934323443349F
:100146002034523465346134643420345434653494
:1001560073347434203450346134733473346534F6
:1001660064342C3420344D345034553436343034E1
:100176003534303420344134643464347234653474
:10018600733473343A342034303478343634383473
:100196000D340A3400344534523452344F34523418
:1001A6003A342034493432344334203452346534BA
:1001B60061346434203454346534733474342034F4
:1001C6004634613469346C34653464342C342034F8
:1001D600533474346F347034703469346E34673425
:1001E6000D340A3400345434653473347434203492
:1001F6004D3450345534363430343534303420347C
:1002060063346F346D346D3475346E3469346334ED
:100216006134743469346F346E340A340D34003406
:100226000D340A344D345034553436343034353484
:100236003034203453346534743475347034203497
:1002460043346F346D3470346C34653474346534CF
:100256000D340A34003443346134743461347034F8
:1002660075346C3474342034563431342E3430348E
:1002760030340D340A3400342034543469346D3447
:10028600653428346D34733429343D3400340D34E8
:100296000A34523445344134443459340D340A3422
:1002A60000340D340A34493444344C3445340D3466
:1002B6000A34003420344734793472346F342034AD
:1002C60078343D34003456344434443420343D3498
:1002D6002034003420342034473478343D3400341C
:1002E60020342034473479343D34003420342034EB
:1002F60047347A343D3400342034203447343D3496
:10030600003456340D340A3400342D342D342D3453
:100316000034203479343D34003420347A343D348A
:100326000034F030210099000330950023008C0141
:10033600203020008C003F3024008C001F3021002C
:100346008C008B019D012200970184309D00823034
:1003560023009E009D011E159F111E1210309B004A
:100366009C019E169D171D16210091121112200048
:100376009112111223001F121F102000E501E70140
:100386008B170B178B314C23813105302000E10090
:100396000F30E000F430DF00DF0BCF29E00BCF2970
:1003A600E10BCF298B31222381318F312F278131E8
:1003B60052302000E1002C30E0004F30DF00DF0B30
:1003C600E229E00BE229E10BE2290032F630F500E2
:1003D6008030F6008B315B2381318B3131238131C3
:1003E60052302000E1002C30E0004F30DF00DF0B00
:1003F600FA29E00BFA29E10BFA2900328C310E2496
:1004060081318F3195278131230019082000DF00C3
:100416005F08E800FF30DF005F08E8002000911E5B
:100426005C2A230019082000DF005F08E20047303D
:1004360062060319262A673062060319262A0D303A
:100446006206031D282A0130412A1B306206031D5D
:100456002E2AE6015C2A493062060319362A6930DB
:100466006206031D382A6430412A68306206031981
:10047600402A48306206031D452A0330DF005F0824
:10048600E6005C2A6808031D5C2A563062060319DA
:10049600502A76306206031D542A8F312F27813168
:1004A6005C2A3F3020006206031D5C2A8B31222322
:1004B60081312000680866060319942A6608DF0061
:1004C6005F08E8008C2A5430F5008130F6008B3145
:1004D6005B238131942A4A30F5008130F6008B3156
:1004E6005B23813100302100D3000030D200003080
:1004F600D1000030D0000030E7000030E6000030C8
:10050600E5000030E400FF302000E300FF30E400A7
:10051600942A6808003A0319662A013A03196E2AD2
:10052600942A033020006806031DA92A8B318323F1
:100536008131003A0319992A8431CA2481318231E2
:10054600D32281318C31F1248131112A20006803B4
:10055600031DC62A8B13FA01FB018B178431CA24AB
:1005660081318231D32281318D3130258131003A7A
:100576000319C62A8C31F124813103302000DF00B3
:100586005F08E600112A643020006806031D112A60
:100596008431CA248131D4308331DB238131112A5D
:1005A6002100D51BDE2A55082000AD002100540885
:1005B6002000AC00ED2A210054092000A4002100EF
:1005C60055092000A500A40A0319A50A2408AC00B1
:1005D6002508AD002C08B2002D08B300890D893B13
:1005E6008909B400B5002100D71B012B570820004C
:1005F600AF00210056082000AE00102B210056093E
:100606002000A400210057092000A500A40A031910
:10061600A50A2408AE002508AF002E08B6002F084C
:10062600B700890D893B8909B800B9002100D91B9B
:10063600242B59082000B100210058082000B000E2
:10064600332B210058092000A4002100590920005D
:10065600A500A40A0319A50A2408B0002508B100BC
:100666003008BA003108BB00890D893B8909BC00F6
:10067600BD003508F5003408F4003308F3003208ED
:10068600F2003508F9003408F8003308F70032089C
:10069600F6008C318B24823175082000B500740871
:1006A600B4007308B3007208B2003908F5003808C0
:1006B600F4003708F3003608F2003908F900380864
:1006C600F8003708F7003608F6008C318B248231A3
:1006D60075082000B9007408B8007308B7007208DE
:1006E600B6003D08F5003C08F4003B08F3003A0864
:1006F600F2003D08F9003C08F8003B08F7003A080C
:10070600F6008C318B24823175082000BD007408F8
:10071600BC007308BB007208BA003A08A4003B0884
:10072600A5003C08A6003D08A70032083607A80029
:100736003308373DA9003408383DAA003508393D4D
:10074600AB002808A4072908A53D2A08A63D2B08C2
:10075600A73D27082100E700200026082100E60023
:10076600200025082100E500200024082100E400DF
:1007760067085302031DC92B66085202031DC92BC5
:1007860065085102031DC92B6408500203180800AE
:10079600D430860000308700C030840000308500E9
:1007A60014302000A40016001A00A40BD62B080053
:1007B6002000DE008431CA2483318231D322833182
:1007C6003F30F5008130F6008B315B23833120000A
:1007D6005E080E3E86008701403FA900413FAA0001
:1007E6008B316F2383316D30F5008130F6008B310C
:1007F6005B23833120005E0886008701403FDA00D4
:10080600413FDB005A08D6005B08D700890D893BBB
:100816008909D800D9008D31F22583317330F5006E
:100826008130F6008B315B23833120005E08023E67
:1008360086008701403FDA00413FDB005A08D600B8
:100846005B08D700890D893B8909D800D9008D310D
:10085600F22583317930F5008130F6008B315B2348
:10086600833120005E08043E86008701403FDA009F
:10087600413FDB005A08D6005B08D700890D893B4B
:100886008909D800D9008D31F225833120005E0810
:10089600103E86008701403FF200413FF300423F91
:1008A600F400433FF5008531F125833173082000BC
:1008B600DD007208DC007F30F5008130F6008B31F8
:1008C6005B23833120005C08D6005D08D700D80181
:1008D600D9018D31F22583315D30F5008130F60086
:1008E6008B315B23833120005E08083E860087013A
:1008F600403FDA00413FDB005A08D6005B08D700CC
:10090600890D893B8909D800D9008E313626833175
:100916008C30F5008130F6008B315B23833120006B
:100926005E080A3E86008701403FDA00413FDB0051
:100936005A08D6005B08D700890D893B8909D8007B
:10094600D9008E31362683319030F5008130F6009D
:100956008B315B23833120005E080C3E86008701C5
:10096600403FDA00413FDB005A08D6005B08D7005B
:10097600890D893B8909D800D9008E313626833105
:100986003C30F5008130F6008B315B2308003B30AC
:100996002000A1002108F6002630A2002208F70058
:1009A6000E30A3002308F80068308D316F2584319E
:1009B6008B137B082100E3007A08E2008B172000E6
:1009C6002708A100A2012608A300A4012308A40069
:1009D600A301210823042100D400200022082404B6
:1009E6002100D50020002908A100A2012808A300A3
:1009F600A4012308A400A301210823042100D60092
:100A06002000220824042100D70020002B08A10082
:100A1600A2012A08A300A4012308A400A301210817
:100A260023042100D8002000220824042100D90034
:100A360020002D08A100A2012C08A300A401230870
:100A4600A400A301210823042100DA0020002208C3
:100A560024042100DB0020002F08A100A2012E089B
:100A6600A300A4012308A400A30121082304210054
:100A7600DC002000220824042100DD0020003108CB
:100A8600A100A2013008A300A4012308A400A30129
:100A9600210823042100DE0020002208240421006E
:100AA600DF0020003308A100A2013208A300A40140
:100AB6002308A400A301210823042100E00020004C
:100AC600220824042100E10008002000B2002908C1
:100AD600B0002808AF002708AE002608AD002A0897
:100AE600F2002B08F300890D893B8909F400F50013
:100AF6003008F9002F08F8002E08F7002D08F60038
:100B06008E317A26853175082000B0007408AF0052
:100B16007308AE007208AD000130AC002C08B207B5
:100B260030082F042E042D04031D722D3208860072
:100B3600870181010130B2022A08F2002B08F30076
:100B4600890D893B8909F400F5002908F900280870
:100B5600F8002708F7002608F6008D31AF25853105
:100B660072082000AC002C08B1002A08F2002B08FD
:100B7600F300890D893B8909F400F5002908F9007D
:100B86002808F8002708F7002608F6008E317A268E
:100B9600853175082000A9007408A8007308A7000D
:100BA6007208A6000A303102031CDD2D0730AC00A6
:100BB6002C08B1073030AC002C08B1073108AC0066
:100BC6003208860087012C0881000130B20229080C
:100BD600280427042604031908009F2D003020004E
:100BE600B7000030B6000030B5000030B400003069
:100BF600BB000030BA008030B9000030B8000030C9
:100C0600B3000030B2000030B1000F30B000380839
:100C1600A0003908A1003A08A2003B08A300340846
:100C2600A4003508A5003608A6003708A70001303D
:100C3600A435A50DA60DA70D890B1B2E2408A0070C
:100C46002508A13D2608A23D2708A33D3308AB0091
:100C56003208AA003108A9003008A8000130B00205
:100C66000030B13BB23BB33B280A3D2EA035A10D67
:100C7600A20DA30D890B392E2308AF002208AE0062
:100C86002108AD002008AC002F087502031D552E63
:100C96002E087402031D552E2D087302031D552EB2
:100CA6002C087202031C672E3808B4073908B53DB4
:100CB6003A08B63D3B08B73D2C08F2022D08F33B37
:100CC6002E08F43B2F08F53B0130BB36BA0CB90CA5
:100CD600B80C890B682E3B083A0439043804031D06
:100CE6000A2E3508F3003408F20008002000A2019D
:100CF600F51F8A2EF209F309F409F509F20A031918
:100D0600F30A0319F40A0319F50AA201A20AF91F44
:100D16009B2EF609F709F809F909F60A0319F70AE5
:100D26000319F80A0319F90A0130A0002008A206DF
:100D36000030A6000030A5000030A4000030A3005B
:100D460075087404730472040319E42EA101A10A40
:100D5600F51BB92E0130F235F30DF40DF50D890BA7
:100D6600AE2E0130A0002008A107AB2E0130A3351E
:100D7600A40DA50DA60D890BBA2E75087902031DC3
:100D8600CE2E74087802031DCE2E73087702031D3B
:100D9600CE2E72087602031CD92E7208F60273084C
:100DA600F73B7408F83B7508F93B23140130F53618
:100DB600F40CF30CF20C890BDA2E0130A102031DA0
:100DC600B92E22080319F22EA309A409A509A6091A
:100DD600A30A0319A40A0319A50A0319A60A2608D1
:100DE600F5002508F4002408F3002308F2000800A3
:100DF6002000BF1F132F2D308B31CD2386312000CD
:100E06003C09D2003D09D3003E09D4003F09D50074
:100E1600D20A0319D30A0319D40A0319D50A1B2FB8
:100E26003F08D5003E08D4003D08D3003C08D20058
:100E36000030F5000030F4000030F3006430F200BA
:100E46005508F9005408F8005308F7005208F60050
:100E560086317926863175082000B6007408B500FB
:100E66007308B4007208B3000A30B7000030B80047
:100E760040308C315D2486314030F5000030F6007C
:100E86008B315B2386312E308B31CD238631643016
:100E9600F2000030F30020005308F5005208F40079
:100EA6008C313124863173082000D1007208D000BD
:100EB600003051020A30031950020318662F3030F1
:100EC6008B31CD23863120005108A1005008A000A7
:100ED6000A30A2000030A30040308E31CD26863184
:100EE6004030F5000030F6008B315B23080020000F
:100EF600BF1F922F2D308B31CD23873120003C0927
:100F0600D2003D09D3003E09D4003F09D500D20ADC
:100F16000319D30A0319D40A0319D50A9A2F3F08CD
:100F2600D5003E08D4003D08D3003C08D20000306E
:100F3600F5000030F4000030F3000A30F2005508E6
:100F4600F9005408F8005308F7005208F6008631F5
:100F56007926873175082000B6007408B500730835
:100F6600B4007208B3000A30B7000030B800403051
:100F76008C315D2487314030F5000030F6008B312E
:100F86005B2387312E308B31CD2387310A30F20037
:100F96000030F30020005308F5005208F4008C31AD
:100FA6003124873173082000D1007208D00051081F
:100FB600A1005008A0000A30A2000030A300403073
:100FC6008E31CD2687314030F5000030F6008B316A
:100FD6005B230800F6000F30F5007508F6050A30A9
:100FE6007602031CF82F3730F92F3030F5007508DC
:0A0FF600F60776088B31CD230800C2
:10160C008B3129232400961408008B3129232400C4
:10161C00161408008B3129232400161508006400C9
:10162C0080010131890B162B0034F2008B312923F8
:10163C0072082400910008002E30F5008130F6006D
:10164C008B315B230800240016081F39031D292B3E
:10165C00141D0800292B21008C140C152830240093
:10166C009500960113309200C03094000800F400ED
:10167C007435F3007308F5007208F3007308F5076E
:10168C008B312923750824009100080020009C014F
:10169C007D309B009A0107309C009110FA01FB01F0
:1016AC00210091140B178B1708007508840076081D
:1016BC00850012000319080075088400760885005F
:1016CC0000088B31CD238B310130F5070030F63D0E
:1016DC005B2B20002A08A1002908A0000A30A200D8
:1016EC000030A3002B308E31CD268B312B30F50002
:1016FC000030F6008B315B2308003A302000A1004B
:10170C002108F6002330A2002208F700F801F80A9D
:10171C0068308D316F258B312000231C972B0130C5
:10172C000800003008002000A200A001A1018B31AC
:10173C000B238B31F201200022088B313D238B319E
:10174C0076088B311B238B3177088B311B238B3124
:10175C008B3110230800F3008B3129238B312400AB
:10176C0096158B3129238B3124001108F200720855
:10177C00F4008B3129238B3173080319C82B2400F7
:10178C009612CA2B24009616161674080800F3003D
:10179C0020006508013EF2007208F400203074024B
:1017AC000318F401740867060319D82B7308F200A8
:1017BC006508A03E86008701720881007408F2005B
:1017CC007208E50021001116080078082000A1001D
:1017DC007708A000210E0F39A000A1012008873145
:1017EC00ED278B3178088731ED278B317808200075
:1017FC00A1007708A0000430A136A00C890B022CA4
:10180C0020088731ED278B3177088731ED270800C9
:10181C002000A3017530A1002108F6002330A2009E
:10182C002208F700F801F80A68308D316F258C31E9
:10183C00683020002306031D2A2CA030F5008030D0
:10184C00F6008B315B230800CE30F5008030F600BB
:10185C008B315B230800720873040319582CF701B1
:10186C00F70AF31B432C0130F235F30D890B3A2C9C
:10187C000130F6007608F707372C73087502031D44
:10188C00492C72087402031C4F2C7208F402730862
:10189C00F53B0130F336F20C890B502C0130F7027A
:1018AC00031D432C7508F3007408F2000800200097
:1018BC00BB003B08B9003908BA00B61F7B2C2D3091
:1018CC00B9003B0886008701390881000130B90056
:1018DC003908BB07B309B409B509B609B30A03192A
:1018EC00B40A0319B50A0319B60A3608A900350853
:1018FC00A8003408A7003308A6003808AB00370846
:10190C00AA003B0885316825080000302000A300A0
:10191C000030A2000030A1000030A000721C9F2CEF
:10192C0076082000A0077708A13D7808A23D790829
:10193C00A33D0130F635F70DF80DF90D890BA02CF0
:10194C000130F536F40CF30CF20C890BA72C75084E
:10195C00740473047204031D942C20002308F500F6
:10196C002208F4002108F3002008F2000800F70117
:10197C00F801720873040319EC2CF901F90AF31B32
:10198C00D12C0130F235F30D890BC82C0130F60047
:10199C007608F907C52C0130F735F80D890BD22CD8
:1019AC0073087502031DDC2C72087402031CE32CF3
:1019BC007208F4027308F53B77140130F336F20C1D
:1019CC00890BE42C0130F902031DD12C7808F300AB
:1019DC007708F200080021006308F8006208F7009D
:1019EC008B31EB238C3121005508F8005408F7009B
:1019FC008B31EB238C3121005708F8005608F70087
:101A0C008B31EB238C3121005908F8005808F70072
:101A1C008B31EB238C3121005D08F8005C08F7005A
:101A2C008B31EB238C3121005F08F8005E08F70046
:101A3C008B31EB238C3121006108F8006008F70032
:101A4C008B31EB238C313C30F5008130F6008B313F
:101A5C005B2308009830840080308500003FF20042
:101A6C00013FF300023FF400033FF500210067083B
:101A7C007502031D4B2D66087402031D4B2D650862
:101A8C007302031D4B2D6408720203184F2D013095
:101A9C0008009C30840080308500003FF200013F3C
:101AAC00F300023FF400033FF50075086702031DC5
:101ABC00692D74086602031D692D73086502031DE8
:101ACC00692D7208640203186D2D01300800003076
:101ADC0008002000A0008B310B238D31F201200077
:101AEC0020088B313D238D3176088B311B238D31B2
:101AFC008B3106238D31F201F20A200020088B3144
:101B0C003D238D317808F803F90002307902031C6B
:101B1C009E2D01308B31B1238D31F9007708860071
:101B2C008701790881000130F9007908F707882DC1
:101B3C0000308B31B1238D31F90077088600870195
:101B4C00790881000130F9007908F7078B311023EF
:101B5C00080075087404730472040319E92D20003D
:101B6C00A101A10AF51BC62D0130F235F30DF40DC0
:101B7C00F50D890BBB2D0130A0002008A107B82D55
:101B8C0075087902031DD42D74087802031DD42D19
:101B9C0073087702031DD42D72087602031CDE2D08
:101BAC007208F6027308F73B7408F83B7508F93BAA
:101BBC000130F536F40CF30CF20C890BDF2D0130EF
:101BCC00A102031DC62D7908F5007808F4007708EA
:101BDC00F3007608F20008000030F5000030F40045
:101BEC000030F3003230F20020005908F900580898
:101BFC00F8005708F7005608F6008C318B248D310D
:101C0C0075082000D9007408D8007308D700720832
:101C1C00D6000030F5000030F4000430F300003042
:101C2C00F2005908F9005808F8005708F700560850
:101C3C00F600863179268D3175082000D90074089C
:101C4C00D8007308D7007208D6005908BF0058088E
:101C5C00BE005708BD005608BC008631FB260800A4
:101C6C000030F5000030F4000230F3007130F20067
:101C7C0020005908F9005808F8005708F7005608D2
:101C8C00F6008C318B248E3175082000D900740835
:101C9C00D8007308D7007208D6000030F500003069
:101CAC00F4000430F3000030F2005908F900580831
:101CBC00F8005708F7005608F600863179268E3161
:101CCC0075082000D9007408D8007308D700720872
:101CDC00D6005908BF005808BE005708BD0056086A
:101CEC00BC0087317A27080000302000A4000030A7
:101CFC00A3000030A2000030A10075087404730426
:101D0C0072040319C42EA501A50AF51B992E0130E6
:101D1C00F235F30DF40DF50D890B8E2E0130A0006C
:101D2C002008A5078B2E0130A135A20DA30DA40D03
:101D3C00890B9A2E75087902031DAE2E7408780251
:101D4C00031DAE2E73087702031DAE2E72087602A9
:101D5C00031CB92E7208F6027308F73B7408F83BA3
:101D6C007508F93B21140130F536F40CF30CF20C28
:101D7C00890BBA2E0130A502031D992E2408F500FB
:101D8C002308F4002208F3002108F20008002000C8
:101D9C00A8002108A6002008A5002308F3002208AB
:101DAC00F2002608F5002508F4008C31BD248E3194
:101DBC0073082000A6007208A5000130A4002408B6
:101DCC00A80725082604031DD32E280886008701A2
:101DDC0081010130A8022308F3002208F200210837
:101DEC00F5002008F4008C3131248E31720820006B
:101DFC00A4002408A7002308F3002208F2002108FD
:101E0C00F5002008F4008C31BD248E3173082000BD
:101E1C00A1007208A0000A302702031C192F0730FA
:101E2C00A4002408A7073030A4002408A70727081B
:101E3C00A400280886008701240881000130A8022C
:101E4C0020082104031DF12E0130A4002408A8074A
:101E5C000800E03021009E00C230220097007D3047
:101E6C0021009D0005302000D8000F30D700F43041
:101E7C00D600D60B3F2FD70B3F2FD80B3F2F21006F
:101E8C009D149D18472F1C082000DE0021001B0804
:101E9C002000DD006630F5008130F6008B315B23CD
:101EAC008F3120005D085E04031D642F8830F5001F
:101EBC008130F6008B315B238F318A2F20005D0837
:101ECC00F2005E08F300F401F5010030F900033074
:101EDC00F8003330F7003330F600863179268F3135
:101EEC0075082000DC007408DB007308DA00720847
:101EFC00D9005C08BF005B08BE005A08BD00590839
:101F0C00BC008631FB268F318430F5008130F60021
:101F1C008B315B2321009D012200970108001930B1
:101F2C00F8007808F6001F30F9007908F7006830DF
:101F3C008B3199238F311B30F8007808F60018305C
:101F4C00F9007908F70068308B3199238F311C30F8
:101F5C00F8007808F6001830F9007908F7006830B6
:101F6C008B3199238F312000A301A4012000240878
:101F7C008500230884004F3084078030853D00089D
:101F8C00F8007808A5000130A3070030A43D250A0D
:101F9C000319DA2F2508F8007808F600F7016830E5
:101FAC008B3199238F31BC2F6B30F8007808F600F9
:101FBC000230F9007908F70068308B3199238F31A2
:101FCC006C30F8007808F600F70168308B319923F3
:101FDC008F313830F8007808F600F701F70A6830CE
:101FEC008B3199238F311330F5008130F6008B3112
:041FFC005B2308005B
:020000040001F9
:04000E00E4EFFFFE1E
:00000001FF
