:0400000080313728EC
:10000600FF347E14803120007F08F1002100111E8C
:100016002B282000111E2B286408660603192528A4
:100026006608A03E86008701010823009A00013079
:10003600F00070082000E60720306602031C2B281B
:10004600E6012B2866086406031D2B2821001112E1
:100056002000911C332891100130FA070030FB3D37
:100066007108FF007E10090080313928FA01FB0172
:100076005930840000308500143088318B2080315F
:10008600A030840000308500503088318B208031CC
:1000960080310320ED007E10200080315228F030A0
:1000A600210099000330950023008C0120302000A8
:1000B6008C003F3024008C001F3021008C008B0107
:1000C6009D012200970184309D00823023009E000E
:1000D6009D011E159F111E1210309B009C019E163D
:1000E6009D171D1621009112111220009112111256
:1000F60023001F121F102000E401E6018B170B17C7
:100106008931B12180318831CF20803105302000FE
:10011600D6000F30D500F430D400D40B9028D50B80
:100126009028D60B902888319820803187319A27DD
:100136008031CB302000D600ED30D5004C30D400D5
:10014600D40BA328D50BA328D60BA32800328831BD
:10015600A720803129302000D6009630D500A63061
:10016600D400D40BB428D50BB428D60BB4288931C7
:10017600CD2180318E312A26803189316721803127
:10018600230019082000D4005408ED00FF30D400E5
:100196005408ED002000911E5E2923001908200056
:1001A600D4005408D800443058060319DE286430B9
:1001B6005806031DF728DD01DE010030A600A70062
:1001C6008A31B52280311A30D03E86008701403F01
:1001D6002000D900413FDA00423FDB00433FDC000C
:1001E6000530D4005408E500473058060319FF28A7
:1001F60067305806031D012901301A291B3058069D
:10020600031D0729E5015E294930580603190F2900
:1002160069305806031D112964301A2948305806DA
:100226000319192968305806031D1E290330D40006
:100236005408E5005E296D08031D5E2956305806F0
:100246000319292976305806031D2D2987319A2747
:1002560080315E295A3020005806031936297A3033
:100266005806031D57290430D4005408E500003011
:100276002100C3000030C2000030C1000030C000C1
:100286000030C7000030C6000030C5000030C40092
:100296000030CB000030CA000030C9000030C80072
:1002A6002000DF01E0015E293F305806031D5E296C
:1002B60088319820803120006D0865060319992938
:1002C6006508D4005408ED008D297D30F500853091
:1002D600F6008931152180319929B830F50085302D
:1002E600F6008931152180319929A030F500853035
:1002F600F60089311521803100302100E9000030F7
:10030600E8000030E7000030E600FF30CE00FF30A6
:10031600CF00992920006D08003A03197029013A87
:1003260003197829053A0319682999290430200008
:100336006D06031D812A893151218031003A031946
:100346009E298531E125803121005A082000D400FC
:1003560021005B082000D5000030D51BFF30D600F9
:10036600D70054082100C007200055082100C13DD0
:10037600200056082100C23D200057082100C33D39
:100386005C082000D40021005D082000D500003064
:10039600D51BFF30D600D70054082100C407200023
:1003A60055082100C53D200056082100C63D200005
:1003B60057082100C73D5E082000D40021005F08D1
:1003C6002000D5000030D51BFF30D600D7005408DA
:1003D6002100C807200055082100C93D2000560805
:1003E6002100CA3D200057082100CB3D01302000E6
:1003F600DF070030E03D6008803AD40080305402C8
:10040600031D072AFA305F02031CCD2820005F086F
:10041600F2006008F300890D893B8909F400F500B4
:1004260021004308F9004208F8004108F700400897
:10043600F6008F317E27803175082100C3007408CD
:10044600C2007308C1007208C00020005F08F200F5
:100456006008F300890D893B8909F400F500210045
:100466004708F9004608F8004508F7004408F60072
:100476008F317E27803175082100C7007408C600B9
:100486007308C5007208C40020005F08F200600807
:10049600F300890D893B8909F400F50021004B081A
:1004A600F9004A08F8004908F7004808F6008F31B5
:1004B6007E27803175082100CB007408CA007308B6
:1004C600C9007208C80041082000E8002100400861
:1004D6002000E700210045082000EA00210044082A
:1004E6002000E900210049082000EC00210048080E
:1004F6002000EB008931E9218031B72A05306D06ED
:10050600031DBA2A5E08A7005D08A6008A31B52237
:10051600803101302000DD070030DE3D5C0821001F
:100526006D06031DA62A20005B0821006C06031D2C
:10053600A62A20005A0821006B06031DA62A2000C1
:10054600590821006A06031DB72A86317F268031A5
:1005560020005E08803AD400A0305402031DB52A5C
:1005660000305D02031CCD282000E501CD280330B4
:100576006D06031DDE2A893151218031003A0319A7
:10058600BE2A8531E12580318D3172258031843155
:100596005324803186317F26803120005E08A700F3
:1005A6005D08A6008B31A023803101302000DD07D5
:1005B6000030DE3DCD286D03031D132B8B13FA018E
:1005C600FB018B178531E12580318D317225803114
:1005D6008431532480318C3116248031003A03193A
:1005E600132B86317F2680312000DD01DE010130AC
:1005F600D9070030DA3D0030DB3D0030DC3D5E08D7
:10060600A7005D08A6008B31A023803101302000B1
:10061600DD070030DE3D0330D4005408E500CD2868
:10062600643020006D06031DCD288531E12580311B
:100636008D31722580318331252380312000E501FB
:10064600ED01CD28D9302000D0008530D100DD3035
:10065600D2008530D300843153248331A830F5008D
:100666008530F6008931152183312100510820009B
:10067600AA00210050082000A900893129218331D0
:10068600C630F5008530F600893115218331210009
:1006960052082000CA00210053082000CB00890D13
:1006A600893B8909CC00CD008C319624833120000A
:1006B6005108F6005008F5008931152183312100D3
:1006C60054082000CA00210055082000CB00890DDF
:1006D600893B8909CC00CD008C31962483312000DA
:1006E6005308F6005208F50089311521833121009F
:1006F60056082000CA00210057082000CB00890DAB
:10070600893B8909CC00CD008C3196248331163083
:10071600D03E86008701403FF200413FF300423F52
:10072600F400433FF5008731122783317308200018
:10073600CF007208CE00CC30F5008530F600893146
:100746001521833120004E08CA004F08CB00CC018A
:10075600CD018C31962483319730F5008530F60033
:1007660089311521833121005B08F3005A08F20014
:1007760020006808F5006708F4008D311E258331D6
:1007860072082000CA007308CB00890D893B8909CD
:10079600CC00CD008C31DA24833120005108F600DC
:1007A6005008F50089311521833121005D08F300D9
:1007B6005C08F20020006A08F5006908F4008D3133
:1007C6001E25833172082000CA007308CB00890DEC
:1007D600893B8909CC00CD008C31DA248331200095
:1007E6005308F6005208F50089311521833121009E
:1007F6005F08F3005E08F20020006C08F5006B0845
:10080600F4008D311E25833172082000CA0073085A
:10081600CB00890D893B8909CC00CD008C31DA24C7
:100826008331B030F5008530F600893115218331EA
:10083600210061082000B100210060082000B000FE
:1008460089313D21833120005108F6005008F5001A
:10085600893115218331210063082000B100210070
:1008660062082000B00089313D2183312000530801
:10087600F6005208F50089311521833121006508FB
:100886002000B100210064082000B00089313D211C
:1008960083318730F5008530F6008931152108004F
:1008A6002100D31B5E2C53082000AD002100520806
:1008B6002000AC006D2C210052092000A40021006C
:1008C60053092000A500A40A0319A50A2408AC00B0
:1008D6002508AD002C08B2002D08B300890D893B10
:1008E6008909B400B5002100D51B812C55082000CC
:1008F600AF00210054082000AE00902C21005409BE
:100906002000A400210055092000A500A40A03190F
:10091600A50A2408AE002508AF002E08B6002F0849
:10092600B700890D893B8909B800B9002100D71B9A
:10093600A42C57082000B100210056082000B00062
:10094600B32C210056092000A400210057092000DD
:10095600A500A40A0319A50A2408B0002508B100B9
:100966003008BA003108BB00890D893B8909BC00F3
:10097600BD003508F5003408F4003308F3003208EA
:10098600F2003508F9003408F8003308F700320899
:10099600F6008B313A23843175082000B5007408BF
:1009A600B4007308B3007208B2003908F5003808BD
:1009B600F4003708F3003608F2003908F900380861
:1009C600F8003708F7003608F6008B313A238431F1
:1009D60075082000B9007408B8007308B7007208DB
:1009E600B6003D08F5003C08F4003B08F3003A0861
:1009F600F2003D08F9003C08F8003B08F7003A0809
:100A0600F6008B313A23843175082000BD00740846
:100A1600BC007308BB007208BA003A08A4003B0881
:100A2600A5003C08A6003D08A70032083607A80026
:100A36003308373DA9003408383DAA003508393D4A
:100A4600AB002808A4072908A53D2A08A63D2B08BF
:100A5600A73D27082100E900200026082100E8001C
:100A6600200025082100E700200024082100E600D8
:100A760008001D341E341F3420342134223423341C
:100A86002434253426342734283429342A342B3484
:100A96002C342D342E342F34303431343234333434
:100AA6003434353437343834633464346534663436
:100AB6006734683469346A341A34373438347434F1
:100AC600FF340034003490340034A434F034283435
:100AD60000344334613474346134703475346C34A6
:100AE60074342034563431342E34303432340D34A8
:100AF6000A3400345A34653472346F34203447343F
:100B0600793472346F342E340D340A34003445345B
:100B1600523452344F3452343A3420344934323415
:100B260043340D340A340034203447347934723473
:100B36006F34203478343D340034523445344134F3
:100B4600443459340D340A340034203454342834AF
:100B56006D34733429343D34003420344D346134DB
:100B66006734203478343D340034493444344C34CA
:100B760045340D340A340034563444344434203475
:100B86003D342034003420344734203478343D3426
:100B960000342034473474343D34003456340D3434
:100BA6000A3400342D342D342D3400342034793475
:100BB6003D34003420347A343D3400343B30200058
:100BC600A3002308A0002830A4002408A1000E30AA
:100BD600A5002508A20068308B31D92385318B13F7
:100BE6007B082100D1007A08D0008B172000290845
:100BF600A300A4012808A500A6012508A600A501B2
:100C0600230825042100D200200024082604210000
:100C1600D30020002B08A300A4012A08A500A601E2
:100C26002508A600A501230825042100D4002000DC
:100C3600240826042100D50020002D08A300A401C5
:100C46002C08A500A6012508A600A5012308250451
:100C56002100D6002000240826042100D700200009
:100C66002F08A300A4012E08A500A6012508A600AA
:100C7600A501230825042100D80020002408260405
:100C86002100D90020003108A300A4013008A500E6
:100C9600A6012508A600A501230825042100DA00DF
:100CA6002000240826042100DB0020003308A300CE
:100CB600A4013208A500A6012508A600A50123085F
:100CC60025042100DC002000240826042100DD0084
:100CD60020003508A300A4013408A500A6012508B4
:100CE600A600A501230825042100DE002000240813
:100CF60026042100DF000800210051082000A10081
:100D0600210050082000A0008A319022863121005F
:100D160053082000A100210052082000A0008A31BB
:100D260090228631210055082000A1002100540898
:100D36002000A0008A319022863121005708200029
:100D4600A100210056082000A0008A319022863199
:100D560021005B08F3005A08F20020006808F5003D
:100D66006708F4008D311E25863173082000A10026
:100D76007208A0008A319022863121005D08F300B6
:100D86005C08F20020006A08F5006908F4008D315D
:100D96001E25863173082000A1007208A0008A3142
:100DA6009022863121005F08F3005E08F2002000E1
:100DB6006C08F5006B08F4008D311E25863173082A
:100DC6002000A1007208A0008A31902286312100FD
:100DD60061082000A100210060082000A0008A31DF
:100DE60090228631210063082000A10021006208BC
:100DF6002000A0008A31902286312100650820005B
:100E0600A100210064082000A0008A3190228631CA
:100E16008730F5008530F60089311521080000304D
:100E26002000B7000030B6000030B5000030B40036
:100E36000030BB000030BA008030B9000030B80086
:100E46000030B3000030B2000030B1000F30B00007
:100E56003808A0003908A1003A08A2003B08A30000
:100E66003408A4003508A5003608A6003708A700F0
:100E76000130A435A50DA60DA70D890B3C2F24081E
:100E8600A0072508A13D2608A23D2708A33D330853
:100E9600AB003208AA003108A9003008A8000130CA
:100EA600B0020030B13BB23BB33B280A5E2FA035FF
:100EB600A10DA20DA30D890B5A2F2308AF002208FE
:100EC600AE002108AD002008AC002F087502031DF6
:100ED600762F2E087402031D762F2D087302031D2C
:100EE600762F2C087202031C882F3808B40739089D
:100EF600B53D3A08B63D3B08B73D2C08F2022D0831
:100F0600F33B2E08F43B2F08F53B0130BB36BA0CF9
:100F1600B90CB80C890B892F3B083A0439043804FC
:100F2600031D2B2F3508F3003408F2000800E030CB
:100F360021009E00C230220097007D3021009D00D6
:100F460005302000CC000F30CB00F430CA00CA0BAD
:100F5600AA2FCB0BAA2FCC0BAA2F21009D149D18CC
:100F6600B22F1C082000D20021001B082000D1004F
:100F7600BF30F5008530F600893115218731200014
:100F860051085204031DCF2FD530F5008530F600E9
:100F9600893115218731F52F20005108F2005208BA
:100FA600F300F401F5010030F9000330F8003330A6
:100FB600F7003330F6008F317E2787317508200021
:100FC600D0007408CF007308CE007208CD00500818
:100FD600B3004F08B2004E08B1004D08B0008F3183
:100FE60003278731D130F5008530F6008931152188
:0A0FF60021009D0122009701080070
:1010F80088319F2024001614080088319F2024007E
:101108009614080088319F202400161508006400F2
:1011180080010131890B8C280034F20088319F202E
:1011280072082400910008006C30F5008530F60044
:10113800893115210800240016081F39031D9F282E
:10114800141D08009F2821008C140C152830240039
:101158009500960113309200C03094000800F70003
:1011680088317C208831F20177088831C0208831A5
:101178007608883191200800F4007435F30073086C
:10118800F5007208F3007308F50788319F20750889
:1011980024009100080020009C017D309B009A01EA
:1011A80007309C009110FA01FB01210091140B17E4
:1011B8008B170800F80088317C208831F201780804
:1011C8008831C020883176088831912088317708A5
:1011D800883191200800F6000F30F5007508F605F3
:1011E8000A307602031CFA283730FB283030F50025
:1011F8007508F60776088A31062208002000A30041
:10120800A101A2017808A0002008F600230888316F
:10121800B320893179088831912089318831862035
:101228000800750884007608850012000319080074
:10123800750884007608850000088A3106228931FD
:101248000130F5070030F63D152920002A08A100D5
:101258002908A0000A30A2000030A3002B308D31ED
:10126800C82589312B30F5000030F6008931152169
:10127800080020003108AA003008A9000A30AB0095
:101288000030AC0032308A31472289313230F500E3
:101298000030F6008931152108003A302000A300FB
:1012A8002308A0002530A4002408A100A201A20A56
:1012B80068308B31D92389312000251C65290130FC
:1012C800080000300800F801F80A20302000A400C7
:1012D8002408F9001E3089310221893102302000AA
:1012E800A4002408F800F901F90A1E308931022106
:1012F8000800F5006400230095187E297508F2009F
:10130800F30172089100730892003F30F4007408EA
:10131800950515140310151803140030093D13081A
:101328000800F30088319F20893124009615883100
:101338009F20893124001108F2007208F4008831D6
:101348009F20893173080319AC2924009612AE290D
:10135800240096161616740808006730F6007608FA
:10136800F700F80106307802031808007808893178
:101378007D218931F600770886008701760881008B
:101388000130F6007608F7070130F6007608F8070E
:10139800B6292000A5017530A3002308A000253038
:1013A800A4002408A100A201A20A68308B31D92325
:1013B8008931683020002506031908008A30F500B5
:1013C8008530F6008931152108006730F600760867
:1013D800F700F8010630780203180800770886003D
:1013E80087010108F6007608F20078088A3124227D
:1013F80089310130F6007608F7070130F6007608E3
:10140800F807EE29F30020006408013EF200720894
:10141800F400203074020318F401740866060319F6
:10142800112A7308F2006408A03E8600870172083A
:1014380081007408F2007208E40021001116080007
:10144800F50023009518252A7508F300F4017308A0
:10145800910074089200720893003F30F3007308FB
:101468009505200003108B1B03148B1323001515FF
:1014780055309600AA309600951415112000031CCB
:1014880008008B1708002000AF002F08AD002D08BA
:10149800AE00AA1F5F2A2D30AD002F0886008701F5
:1014A8002D0881000130AD002D08AF07A909AA0950
:1014B800A90A0319AA0A2A08A1002908A0002C08C9
:1014C800A3002B08A2002F088D31C8250800F900B9
:1014D80020002008A4002408F6002108A5002508FB
:1014E800F70079088831DE208A3101302000A30214
:1014F800230A03198D2A2000220886008701010883
:10150800883191208A3101302000A4002408A207E4
:10151800792A88318620080020002108A3002008A5
:10152800A200230E0F39A200A30122088831EF2060
:101538008A31200021088831EF208A3120002108D3
:10154800A3002008A2000430A336A20C890BA82A05
:1015580022088831EF208A31200020088831EF20C6
:10156800080020002708803AA800A0302802031DA0
:10157800BF2A003026020318080020002708F300BD
:101588002608F2008B310A238A3120006308A8005C
:101598002808A0006108A9002908A100D030AA00E5
:1015A8002A08A2002030AB002B08A30062088C3167
:1015B80055240800720873040319052BF701F70A6C
:1015C800F31BF02A0130F235F30D890BE72A0130BD
:1015D800F6007608F707E42A73087502031DF62A51
:1015E80072087402031CFC2A7208F4027308F53BA3
:1015F8000130F336F20C890BFD2A0130F702031D86
:10160800F02A7508F3007408F20008007308F50062
:101618007208F4000B30F600750DF50CF40CF60B9F
:10162800102B74080339503EF70077082000E200B9
:101638007308F5007208F400750DF50CF40C750DBF
:10164800F50CF40C750DF50CF40C7408F60076081E
:10165800E3007208F4000430F435FF3E031D302B1C
:101668007435E039F5007508E10008000030200005
:10167800A3000030A2000030A1000030A000721CBE
:101688004E2B76082000A0077708A13D7808A23DD8
:101698007908A33D0130F635F70DF80DF90D890BE2
:1016A8004F2B0130F536F40CF30CF20C890B562B4A
:1016B8007508740473047204031D432B2000230867
:1016C800F5002208F4002108F3002008F2000800C1
:1016D800F801F9017208730403199B2BF701F70A43
:1016E800F31B802B0130F235F30D890B772B01307A
:1016F800F6007608F707742B0130F835F90D890BD9
:10170800812B73087502031D8B2B72087402031C4E
:10171800922B7208F4027308F53B78140130F33603
:10172800F20C890B932B0130F702031D802B7908EB
:10173800F3007808F200080020002708803AA80083
:10174800A0302802031DAA2B003026020318080027
:1017580020005C082100ED0020005B082100EC005F
:1017680020005A082100EB00200059082100EA0057
:1017780020002708F3002608F2008B310A238B315A
:1017880020006308A8002808A0006108A90029080B
:10179800A100D030AA002A08A2002030AB002B08F4
:1017A800A30062088A316B220800F9002000200893
:1017B800F8007808F60079088831B3208B31883131
:1017C80081208B31F201F20A79088831C0208B31EF
:1017D80020002208A203F80002307802031C042C1F
:1017E8000130893195218B31F800200021088600CD
:1017F8008701780881000130F8007808A107EC2BF0
:101808000030893195218B31F800200021088600AD
:101818008701780881000130F8007808A10788312D
:10182800862008006430840085308500003FF2007F
:10183800013FF300023FF400033FF500210069086F
:101848007502031D312C68087402031D312C6708CA
:101858007302031D312C660872020318352C0130FF
:1018680008006830840085308500003FF200013FA1
:10187800F300023FF400033FF50075086902031DF9
:101888004F2C74086802031D4F2C73086702031D50
:101898004F2C720866020318532C013008000030E0
:1018A8000800F90020002008A4002408F6002108F8
:1018B800A5002508F70079088831DE208C318831A9
:1018C80081208C31F201F20A79088831C0208C31EC
:1018D80020002308A303A40002302402031C842C44
:1018E8000130893195218C312000A400220886001E
:1018F8008701240881000130A4002408A2076C2C69
:101908000030893195218C312000A40022088600FE
:101918008701240881000130A4002408A207883127
:10192800862008000030F5000030F4000030F30095
:101938003230F20020004D08F9004C08F8004B083E
:10194800F7004A08F6008B313A238C3175082000DD
:10195800CD007408CC007308CB007208CA000030B0
:10196800F5000030F4000430F3000030F2004D08B8
:10197800F9004C08F8004B08F7004A08F6008F31C8
:101988007E278C3175082000CD007408CC007308C0
:10199800CB007208CA004D08B3004C08B2004B08CF
:1019A800B1004A08B0008F31032708000030F50065
:1019B8000030F4000230F3007130F20020004D08CE
:1019C800F9004C08F8004B08F7004A08F6008B317C
:1019D8003A238C3175082000CD007408CC007308B8
:1019E800CB007208CA000030F5000030F400043063
:1019F800F3000030F2004D08F9004C08F8004B08DD
:101A0800F7004A08F6008F317E278C3175082000D0
:101A1800CD007408CC007308CB007208CA004D08CA
:101A2800B3004C08B2004B08B1004A08B0008E3130
:101A3800942608007308803AF60080307602031D69
:101A4800272D01307202031C422DF51F642D7408E6
:101A5800FF3EF8007F30753DF9007308803AF600C4
:101A68007908803A7602031D3B2D78087202031C20
:101A7800642DFF30F2007F30F30008007508803ACB
:101A8800F60080307602031D4B2D01307402031CD2
:101A9800642D7408003EF8008030753DF90079081F
:101AA800803AF6007308803A7602031D5D2D7208AD
:101AB8007802031C642D0030F2008030F300080027
:101AC8007409F6007509F700F60A0319F70A72088F
:101AD8007607F2007308773DF30008000230200013
:101AE800A4002408F800F901F90A1E3089310221FE
:101AF8008D3103302000A4002408A0002930A5005F
:101B08002508A1000630A6002608A2001E308B3149
:101B1800D9238D3120002A08A400A5012908A60090
:101B2800A7012608A700A601240826042100E00032
:101B38002000250827042100E10020002C08A4002B
:101B4800A5012B08A600A7012608A700A6012408BE
:101B580026042100E4002000250827042100E500D0
:101B680020002E08A400A5012D08A600A70126081C
:101B7800A700A601240826042100E2002000250869
:101B880027042100E30008002000A8002108A6007F
:101B98002008A5002308F3002208F2002608F50013
:101BA8002508F4008B316C238D3173082000A600C2
:101BB8007208A5000130A4002408A80725082604F7
:101BC800031DCE2D28088600870181010130A80257
:101BD8002308F3002208F2002108F5002008F40089
:101BE8008A31DE228D3172082000A4002408A70063
:101BF8002308F3002208F2002108F5002008F40069
:101C08008B316C238D3173082000A1007208A0006D
:101C18000A302702031C142E0730A4002408A70743
:101C28003030A4002408A7072708A4002808860045
:101C38008701240881000130A80220082104031D1F
:101C4800EC2D0130A4002408A80708001930200052
:101C5800A4002408F8003F30A5002508F9006830E2
:101C6800893102218E311B302000A4002408F8009D
:101C78001830A5002508F9006830893102218E3115
:101C88001C302000A4002408F8001830A5002508FE
:101C9800F9006830893102218E312000A601A701A0
:101CA800200027088500260884003C3084078530FA
:101CB800853D0008A4002408A8000130A6070030CC
:101CC800A73D280A0319722E2808A4002408F80042
:101CD800F9016830893102218E31542E6B30200091
:101CE800A4002408F8000230A5002508F90068308F
:101CF800893102218E316C302000A4002408F800BC
:101D0800F9016830893102218E3138302000A40071
:101D18002408F800F901F90A68308931022108001D
:101D28002000B31FAC2E2D308A3106228E312000C0
:101D38003009C6003109C7003209C8003309C90093
:101D4800C60A0319C70A0319C80A0319C90AB42E0F
:101D58003308C9003208C8003108C7003008C60077
:101D68000030F5000030F4000030F3000A30F200D3
:101D78004908F9004808F8004708F7004608F6003F
:101D88008F317E278E3173082000AA007208A900BF
:101D98000A30AB000030AC0034308A3147228E3133
:101DA8003430F5000030F600893115218E312E309F
:101DB8008A3106228E310A30F2000030F30020000A
:101DC8004708F5004608F4008A31DE228E31730890
:101DD8002000C5007208C4004508A1004408A000FE
:101DE8000A30A2000030A30034308D31C8258E316E
:101DF8003430F5000030F600893115210800200044
:101E0800B31F1B2F2D308A3106228F312000300955
:101E1800C6003109C7003209C8003309C900C60A1B
:101E28000319C70A0319C80A0319C90A232F330853
:101E3800C9003208C8003108C7003008C6000030A1
:101E4800F5000030F4000030F3006430F200490877
:101E5800F9004808F8004708F7004608F6008F31EF
:101E68007E278F3173082000AA007208A9000A3063
:101E7800AB000030AC0034308A3147228F31343027
:101E8800F5000030F600893115218F312E308A3166
:101E980006228F316430F2000030F300200047083A
:101EA800F5004608F4008A31DE228F3173082000DD
:101EB800C5007208C400003045020A300319440204
:101EC80003186A2F30308A3106228F3120004508E6
:101ED800A1004408A0000A30A2000030A30034305A
:101EE8008D31C8258F313430F5000030F600893146
:101EF800152108002000A201F51F8F2FF209F30910
:101F0800F409F509F20A0319F30A0319F40A031983
:101F1800F50AA201A20AF91FA02FF609F709F80984
:101F2800F909F60A0319F70A0319F80A0319F90A4D
:101F38000130A0002008A2060030A6000030A5004D
:101F48000030A4000030A300750874047304720400
:101F58000319E92FA101A10AF51BBE2F0130F235A3
:101F6800F30DF40DF50D890BB32F0130A0002008F7
:101F7800A107B02F0130A335A40DA50DA60D890B1F
:101F8800BF2F75087902031DD32F74087802031D2B
:101F9800D32F73087702031DD32F72087602031C10
:101FA800DE2F7208F6027308F73B7408F83B7508D1
:101FB800F93B23140130F536F40CF30CF20C890BC1
:101FC800DF2F0130A102031DBE2F22080319F72FAE
:101FD800A309A409A509A609A30A0319A40A0319B0
:101FE800A50A0319A60A2608F5002508F4002408FE
:081FF800F3002308F2000800C9
:020000040001F9
:04000E00E4EFFFFE1E
:10E000000000000000000000000000000000000010
:00000001FF
