:0400000080313728EC
:10000600FF347E14803120007F08F1002100111E8C
:100016002B282000111E2B2867086906031925289E
:100026006908A03E86008701010823009A00013076
:10003600F00070082000E90720306902031C2B2815
:10004600E9012B2869086706031D2B2821001112D8
:100056002000911C332891100130FA070030FB3D37
:100066007108FF007E10090080313928FA01FB0172
:10007600E501E601E701E801E901A030840000306E
:1000860085004E3088314C20803180310320EA00D3
:100096007E10200080314F28F03021009900033077
:1000A600950023008C01203020008C003F30240076
:1000B6008C001F3021008C008B019D0122009701CE
:1000C60084309D00823023009E009D011E159F11E5
:1000D6001E1210309B009C019E169D171D162100B6
:1000E6009112111220009112111223001F121F10DB
:1000F6002000E701E9018B170B1789315B2180315D
:1001060088318320803105302000E2000F30E10085
:10011600F430E000E00B8D28E10B8D28E20B8D28F2
:100126008831592080318D3133258031CB30200004
:10013600E200ED30E1004C30E000E00BA028E10BDE
:10014600A028E20BA02800328831682080312930AF
:100156002000E2009630E100A630E000E00BB12876
:10016600E10BB128E20BB1288931B22180318D3102
:10017600992580318831CD2080312300190820004F
:10018600E0006008EA00FF30E0006008EA002000B6
:10019600911E3E29230019082000E0006008E400B3
:1001A600473064060319DF28673064060319DF2821
:1001B6000D306406031DE1280130FA281B30640661
:1001C600031DE728E8013E29493064060319EF2894
:1001D60069306406031DF1286430FA286830640625
:1001E6000319F92848306406031DFE280330E00091
:1001F6006008E8003E296A08031D3E295630640659
:100206000319092976306406031D0D298D3133251E
:1002160080313E295A3020006406031916297A30A7
:100226006406031D37290430E0006008E80000304A
:100236002100DD000030DC000030DB000030DA0099
:100246000030E1000030E0000030DF000030DE006A
:100256000030E5000030E4000030E3000030E2004A
:100266002000E501E6013E293F306406031D3E29D4
:1002760088315920803120006A08680603197929D7
:100286006808E0006008EA006D29AE30F5008430A9
:10029600F6008831A52080317929D230F5008430E6
:1002A600F6008831A52080317929C830F5008430E0
:1002B600F6008831A520803100302100D3000030BF
:1002C600D2000030D1000030D000FF30E600FF3011
:1002D600E700792920006A08003A03195029013AF3
:1002E60003195829053A03194829792904302000A9
:1002F6006A06031D582A8831E1208031003A031925
:100306007E298531F6258031210048082000E0004D
:10031600210049082000E1000030E11BFF30E20027
:10032600E30060082100DA07200061082100DB3DB8
:10033600200062082100DC3D200063082100DD3D2D
:100346004A082000E00021004B082000E1000030B0
:10035600E11BFF30E200E30060082100DE07200019
:1003660061082100DF3D200062082100E03D2000F9
:1003760063082100E13D4C082000E00021004D0803
:100386002000E1000030E11BFF30E200E3006008DE
:100396002100E207200061082100E33D20006208F9
:1003A6002100E43D200063082100E53D01302000E6
:1003B600E5070030E63D6608803AE00080306002DE
:1003C600031DE729FA306502031CCA2820006508C8
:1003D600F2006608F300890D893B8909F400F500EF
:1003E60021005D08F9005C08F8005B08F7005A0870
:1003F600F6008E31F626803175082100DD0074087E
:10040600DC007308DB007208DA0020006508F200E1
:100416006608F300890D893B8909F400F50021007F
:100426006108F9006008F8005F08F7005E08F6004A
:100436008E31F626803175082100E1007408E0004F
:100446007308DF007208DE0020006508F200660807
:10045600F300890D893B8909F400F5002100650840
:10046600F9006408F8006308F7006208F6008E31A8
:10047600F626803175082100E5007408E40073084B
:10048600E3007208E2005B08E9005A08E8005F082A
:10049600EB005E08EA006308ED006208EC008931B3
:1004A600772180312000E801CA2803306A06031D3F
:1004B6006F2A8831E1208031003A03195C2A8531A0
:1004C600F62580318C317B24803185310D258031B4
:1004D600863194268031CA2820006A03031D8F2A9C
:1004E6008B13FA01FB018B178531F62580318C3190
:1004F6007B24803185310D2580318A31DD228031A2
:10050600003A03198F2A8631942680310330200061
:10051600E0006008E800CA28643020006A06031D6F
:10052600CA288531F62580318C317B248031823191
:10053600A12280312000E801EA01CA280530200006
:10054600DC008530DD000930DE008530DF008531D6
:100556000D258231BD30F5008430F6008831A520A6
:10056600823121004F082000AA0021004E082000F9
:10057600A9008831B9208231F330F5008430F600C5
:100586008831A5208231210040082000D6002100B4
:1005960041082000D700890D893B8909D800D90078
:1005A6008B319F23823120005D08F6005C08F50040
:1005B6008831A5208231210042082000D600210082
:1005C60043082000D700890D893B8909D800D90046
:1005D6008B319F23823120005F08F6005E08F5000C
:1005E6008831A5208231210044082000D600210050
:1005F60045082000D700890D893B8909D800D90014
:100606008B319F2382311030C03E86008701403FE8
:10061600F200413FF300423FF400433FF5008F31C3
:100626007827823173082000DB007208DA00013077
:10063600F5008530F6008831A520823120005A0861
:10064600D6005B08D700D801D9018B319F238231B0
:10065600DB30F5008430F6008831A5208231210098
:100666004908F3004808F2006908F5006808F40034
:100676008C312724823172082000D6007308D700F7
:10068600890D893B8909D800D9008B31E323823152
:1006960020005D08F6005C08F5008831A52082314F
:1006A60021004B08F3004A08F2006B08F5006A08BF
:1006B600F4008C312724823172082000D60073089A
:1006C600D700890D893B8909D800D9008B31E323EE
:1006D600823120005F08F6005E08F5008831A5200B
:1006E600823121004D08F3004C08F2006D08F50038
:1006F6006C08F4008C312724823172082000D60061
:100706007308D700890D893B8909D800D9008B3138
:10071600E3238231E430F5008430F6008831A520E9
:100726008231210054082000BC0021005508200019
:10073600BD00890D893B8909BE00BF008831F720BD
:10074600823120005D08F6005C08F5008831A5209E
:100756008231210056082000BC00210057082000E5
:10076600BD00890D893B8909BE00BF008831F7208D
:10077600823120005F08F6005E08F5008831A5206A
:100786008231210058082000BC00210059082000B1
:10079600BD00890D893B8909BE00BF008831F7205D
:1007A6008231BA30F5008430F6008831A520080081
:1007B6001D341E341F34203421342234233424348F
:1007C600253426342734283429342A342B342C343F
:1007D6002D342E342F3430343134323433343434EF
:1007E60035343734383463346434653466346734C6
:1007F600683469346A341A341D341E341F34203484
:10080600213422342334243425342634273428341E
:1008160029342A342B342C342D342E342F343034CE
:1008260031343234333434343534633464346534F7
:1008360066346734683469346A3437343834743427
:10084600FF340034003490340034A434F0342834B7
:1008560000344934323443342034523465346134FC
:10086600643420345434653473347434203450344E
:10087600613473347334653464342C3420344D3429
:1008860050345534363430343534303420344134F1
:100896006434643472346534733473343A342034D3
:1008A60030347834363438340D340A340034453430
:1008B600523452344F3452343A3420344934323478
:1008C600433420345234653461346434203454342F
:1008D60065347334743420344634613469346C348A
:1008E600653464342C342034533474346F347034A7
:1008F600703469346E3467340D340A3400340D3480
:100906000A344D345034553436343034353430347A
:10091600203453346534743475347034203443349D
:100926006F346D3470346C346534743465340D341E
:100936000A340034433461347434613470347534A9
:100946006C3474342034563431342E3430343134EB
:100956000D340A3400340D340A345A346534723492
:100966006F3420344734793472346F342E340D3476
:100976000A3400342034543469346D3465342834F0
:100986006D34733429343D3400340D340A34523412
:1009960045344134443459340D340A3400340D346A
:1009A6000A34493444344C3445340D340A34003462
:1009B60020344734793472346F34203478343D34FB
:1009C600003420344D3461346734203478343D3477
:1009D600003456344434443420343D342034003416
:1009E60020344734203478343D34003456340D34C2
:1009F6000A3400342D342D342D3400344734743405
:100A06003D340034203479343D34003420347A3493
:100A16003D3400342100C11B182D41082000AD00D3
:100A2600210040082000AC00272D210040092000AD
:100A3600A400210041092000A500A40A0319A50A63
:100A46002408AC002508AD002C08B2002D08B30020
:100A5600890D893B8909B400B5002100C31B3B2DD4
:100A660043082000AF00210042082000AE004A2DB6
:100A7600210042092000A400210043092000A5000E
:100A8600A40A0319A50A2408AE002508AF002E08FB
:100A9600B6002F08B700890D893B8909B800B9004F
:100AA6002100C51B5E2D45082000B1002100440829
:100AB6002000B0006D2D210044092000A400210073
:100AC60045092000A500A40A0319A50A2408B000B8
:100AD6002508B1003008BA003108BB00890D893BF2
:100AE6008909BC00BD003508F5003408F400330858
:100AF600F3003208F2003508F9003408F80033082C
:100B0600F7003208F6008A31772285317508200011
:100B1600B5007408B4007308B3007208B20039084F
:100B2600F5003808F4003708F3003608F2003908F3
:100B3600F9003808F8003708F7003608F6008A3159
:100B46007722853175082000B9007408B80073084B
:100B5600B7007208B6003D08F5003C08F4003B08F3
:100B6600F3003A08F2003D08F9003C08F8003B089B
:100B7600F7003A08F6008A31772285317508200099
:100B8600BD007408BC007308BB007208BA003A08BE
:100B9600A4003B08A5003C08A6003D08A7003208B3
:100BA6003607A8003308373DA9003408383DAA00A7
:100BB6003508393DAB002808A4072908A53D2A08B1
:100BC600A63D2B08A73D27082100D30020002608B4
:100BD6002100D200200025082100D1002000240891
:100BE6002100D00008003B302000A1002108F600BB
:100BF6002630A2002208F7000E30A3002308F800D2
:100C060068308B311C2385318B137B082100CF0084
:100C16007A08CE008B1720002708A100A20126081B
:100C2600A300A4012308A400A30121082304210092
:100C3600C0002000220824042100C1002000290849
:100C4600A100A2012808A300A4012308A400A3016F
:100C5600210823042100C2002000220824042100C8
:100C6600C30020002B08A100A2012A08A300A401AA
:100C76002308A400A301210823042100C4002000A6
:100C8600220824042100C50020002D08A100A2018D
:100C96002C08A300A4012308A400A301210823040F
:100CA6002100C6002000220824042100C7002000DD
:100CB6002F08A100A2012E08A300A4012308A40066
:100CC600A301210823042100C800200022082404CF
:100CD6002100C90020003108A100A2013008A300AC
:100CE600A4012308A400A301210823042100CA00AB
:100CF6002000220824042100CB0020003308A10094
:100D0600A2013208A300A4012308A400A30121081C
:100D160023042100CC002000220824042100CD0059
:100D2600080021004F082000A10021004E082000E5
:100D3600A0008931F8218631210041082000A10058
:100D4600210040082000A0008931F82186312100C9
:100D560043082000A100210042082000A00089319C
:100D6600F8218631210045082000A1002100440811
:100D76002000A0008931F821863121004908F300BE
:100D86004808F2006908F5006808F4008C31272449
:100D9600863173082000A1007208A0008931F8216D
:100DA600863121004B08F3004A08F2006B08F50073
:100DB6006A08F4008C312724863173082000A100CC
:100DC6007208A0008931F821863121004D08F30010
:100DD6004C08F2006D08F5006C08F4008C312724ED
:100DE600863173082000A1007208A0008931F8211D
:100DF6008631210055082000A1002100540820005A
:100E0600A0008931F8218631210057082000A10071
:100E1600210056082000A0008931F82186312100E2
:100E260059082000A100210058082000A00089319F
:100E3600F8218631BA30F5008430F6008831A520D5
:100E460008002000B2002908B0002808AF002708D3
:100E5600AE002608AD002A08F2002B08F300890D23
:100E6600893B8909F400F5003008F9002F08F800DD
:100E76002E08F7002D08F6008731AD278731750853
:100E86002000B0007408AF007308AE007208AD0011
:100E96000130AC002C08B20730082F042E042D04B4
:100EA600031D2E2F32088600870181010130B20210
:100EB6002A08F2002B08F300890D893B8909F40002
:100EC600F5002908F9002808F8002708F700260881
:100ED600F6008B315C23873172082000AC002C08A9
:100EE600B1002A08F2002B08F300890D893B890915
:100EF600F400F5002908F9002808F8002708F7008B
:100F06002608F6008731AD27873175082000A9002D
:100F16007408A8007308A7007208A6000A303102F8
:100F2600031C992F0730AC002C08B1073030AC00F9
:100F36002C08B1073108AC003208860087012C085E
:100F460081000130B2022908280427042604031967
:100F560008005B2F00302000A4000030A300003002
:100F6600A2000030A100750874047304720403190A
:100F7600F72FA501A50AF51BCC2F0130F235F30D8D
:100F8600F40DF50D890BC12F0130A0002008A5072F
:100F9600BE2F0130A135A20DA30DA40D890BCD2FB7
:100FA60075087902031DE12F74087802031DE12FED
:100FB60073087702031DE12F72087602031CEC2FDB
:100FC6007208F6027308F73B7408F83B7508F93B9C
:100FD60021140130F536F40CF30CF20C890BED2FCD
:100FE6000130A502031DCC2F2408F5002308F400C8
:0A0FF6002208F3002108F2000800B1
:10107A0088316020240096140800883160202400FA
:10108A001614080088316020240016150800640030
:10109A0080010131890B4D280034F200883160202B
:1010AA0072082400910008009D30F5008430F60093
:1010BA008831A5200800240016081F39031D60285E
:1010CA00141D0800602821008C140C1528302400F7
:1010DA009500960113309200C03094000800F40085
:1010EA007435F3007308F5007208F3007308F50706
:1010FA0088316020750824009100080020009C01B6
:10110A007D309B009A0107309C009110FA01FB0187
:10111A00210091140B178B170800F6000F30F50009
:10112A007508F6050A307602031C9D2837309E287A
:10113A003030F5007508F6077608893194210800E1
:10114A0075088400760885001200031908007508DE
:10115A00840076088500000889319421883101309D
:10116A00F5070030F63DA52820002A08A100290825
:10117A00A0000A30A2000030A3002B308C31D12409
:10118A0088312B30F5000030F6008831A5200800A0
:10119A00F601F60A2030F8007808F7001E30893187
:1011AA000F2188310230F8007808F600F701F70AB3
:1011BA001E3089310F2108003A302000A100210891
:1011CA00F6002330A2002208F700F801F80A683076
:1011DA008B311C2388312000231CF528013008009C
:1011EA000030080020003F08B6003E08B5003D0860
:1011FA00B4003C08B3000A30B7000030B8004030F1
:10120A008A31492288314030F5000030F6008831B1
:10121A00A52008002000A200A001A10188314220D7
:10122A008931F20120002208883174208931760838
:10123A0088315220893177088831522089318831A2
:10124A0047200800F500640023009518282975082E
:10125A00F200F30172089100730892003F30F40023
:10126A007408950515140310151803140030093D68
:10127A0013080800F300883160208931240096158C
:10128A0088316020893124001108F2007208F400C4
:10129A00883160208931730803195629240096126F
:1012AA00582924009616161674080800E830F60025
:1012BA007608F700F8010630780203180800780863
:1012CA00893127218931F600770886008701760857
:1012DA0081000130F6007608F7070130F60076083B
:1012EA00F8076029E830F6007608F700F8010630BA
:1012FA007802031808007708860087010108F600BB
:10130A007608F20078088931D52189310130F60052
:10131A007608F7070130F6007608F8077C29F3000B
:10132A0020006708013EF2007208F40020307402BF
:10133A000318F4017408690603199F297308F20057
:10134A006708A03E86008701720881007408F200CF
:10135A007208E7002100111608002000A301753069
:10136A00A1002108F6002330A2002208F700F801A4
:10137A00F80A68308B311C23893168302000230633
:10138A00031DCE292C30F5008430F6008831A520C3
:10139A0008005A30F5008430F6008831A52008008C
:1013AA00F50023009518D6297508F300F40173088F
:1013BA00910074089200720893003F30F30073089A
:1013CA009505200003108B1B03148B13230015159E
:1013DA0055309600AA309600951415112000031C6A
:1013EA0008008B17080020002108A3002008A2008B
:1013FA00230E0F39A200A3012208883192208931D5
:10140A002000210888319220893120002108A30078
:10141A002008A2000430A336A20C890B102A220845
:10142A0088319220893120002008883192200800D2
:10143A00720873040319442AF701F70AF31B2F2AC7
:10144A000130F235F30D890B262A0130F6007608B1
:10145A00F707232A73087502031D352A72087402D6
:10146A00031C3B2A7208F4027308F53B0130F33679
:10147A00F20C890B3C2A0130F702031D2F2A75084A
:10148A00F3007408F20008002000BB003B08B90012
:10149A003908BA00B61F672A2D30B9003B08860002
:1014AA008701390881000130B9003908BB07B3093F
:1014BA00B409B509B609B30A0319B40A0319B50A76
:1014CA000319B60A3608A9003508A8003408A70087
:1014DA003308A6003808AB003708AA003B08873152
:1014EA002427080000302000A3000030A2000030AA
:1014FA00A1000030A000721C8B2A76082000A007E9
:10150A007708A13D7808A23D7908A33D0130F63558
:10151A00F70DF80DF90D890B8C2A0130F536F40C0C
:10152A00F30CF20C890B932A750874047304720481
:10153A00031D802A20002308F5002208F400210850
:10154A00F3002008F2000800F801F9017208730498
:10155A000319D82AF701F70AF31BBD2A0130F2351D
:10156A00F30D890BB42A0130F6007608F707B12A81
:10157A000130F835F90D890BBE2A73087502031D6F
:10158A00C82A72087402031CCF2A7208F40273086C
:10159A00F53B78140130F336F20C890BD02A01306E
:1015AA00F702031DBD2A7908F3007808F200080043
:1015BA002430840084308500003FF200013FF300AC
:1015CA00023FF400033FF500210053087502031D92
:1015DA00F82A52087402031DF82A51087302031DDF
:1015EA00F82A500872020318FC2A01300800283031
:1015FA00840084308500003FF200013FF300023F7F
:10160A00F400033FF50075085302031D162B7408F6
:10161A005202031D162B73085102031D162B720862
:10162A00500203181A2B013008000030080020006D
:10163A00A000883142208B31F20120002008883135
:10164A0074208B317608883152208B3188313D20C5
:10165A008B31F201F20A20002008883174208B3184
:10166A007808F803F90002307902031C4B2B013089
:10167A0089313F218B31F900770886008701790883
:10168A0081000130F9007908F707352B00308931DC
:10169A003F218B31F900770886008701790881009C
:1016AA000130F9007908F7078831472008007508E2
:1016BA007404730472040319962B2000A101A10A71
:1016CA00F51B732B0130F235F30DF40DF50D890B73
:1016DA00682B0130A0002008A107652B7508790244
:1016EA00031D812B74087802031D812B730877026E
:1016FA00031D812B72087602031C8B2B7208F602DB
:10170A007308F73B7408F83B7508F93B0130F53666
:10171A00F40CF30CF20C890B8C2B0130A102031D83
:10172A00732B7908F5007808F4007708F300760837
:10173A00F20008000030F5000030F4000030F30039
:10174A003230F20020005908F9005808F80057080A
:10175A00F7005608F6008A3177228B317508200087
:10176A00D9007408D8007308D7007208D600003070
:10177A00F5000030F4000430F3000030F20059089C
:10178A00F9005808F8005708F7005608F6008E3195
:10179A00F6268B3175082000D9007408D800730822
:1017AA00D7007208D6005908BF005808BE0057086B
:1017BA00BD005608BC008E31772608000030F500BF
:1017CA000030F4000230F3007130F20020005908B2
:1017DA00F9005808F8005708F7005608F6008A3149
:1017EA0077228B3175082000D9007408D800730855
:1017FA00D7007208D6000030F5000030F40004303B
:10180A00F3000030F2005908F9005808F8005708A8
:10181A00F7005608F6008E31F6268B31750820003F
:10182A00D9007408D8007308D7007208D60059087E
:10183A00BF005808BE005708BD005608BC008E31CC
:10184A00042608007308803AF60080307602031DE9
:10185A00302C01307202031C4B2CF51F6D2C7408BE
:10186A00FF3EF8007F30753DF9007308803AF600B4
:10187A007908803A7602031D442C78087202031C08
:10188A006D2CFF30F2007F30F30008007508803AB3
:10189A00F60080307602031D542C01307402031CBA
:1018AA006D2C7408003EF8008030753DF900790807
:1018BA00803AF6007308803A7602031D662C720895
:1018CA007802031C6D2C0030F2008030F30008000F
:1018DA007409F6007509F700F60A0319F70A72087F
:1018EA007607F2007308773DF30008000230200003
:1018FA00A3002308F600F701F70A1E3089310F21E9
:10190A008C3103302000A3002308F6002830A400FD
:10191A002408F7000630A5002508F8001E308B3190
:10192A001C238C3120002908A300A4012808A50043
:10193A00A6012508A600A501230825042100D40034
:10194A002000240826042100D50020002B08A3002B
:10195A00A4012A08A500A6012508A600A5012308B6
:10196A0025042100D8002000240826042100D900DB
:10197A0020002D08A300A4012C08A500A601250813
:10198A00A600A501230825042100D600200024086A
:10199A0026042100D70008002000A8002108A6007C
:1019AA002008A5002308F3002208F2002608F50003
:1019BA002508F4008A31A9228C3173082000A60078
:1019CA007208A5000130A4002408A80725082604E7
:1019DA00031DD72C28088600870181010130A8023F
:1019EA002308F3002208F2002108F5002008F40079
:1019FA008A311D228C3172082000A4002408A70015
:101A0A002308F3002208F2002108F5002008F40058
:101A1A008A31A9228C3173082000A1007208A00023
:101A2A000A302702031C1D2D0730A4002408A7072B
:101A3A003030A4002408A7072708A4002808860035
:101A4A008701240881000130A80220082104031D0F
:101A5A00F52C0130A4002408A8070800E030210072
:101A6A009E00C230220097007D3021009D00053083
:101A7A002000D8000F30D700F430D600D60B432D03
:101A8A00D70B432DD80B432D21009D149D184B2DA8
:101A9A001C082000DE0021001B082000DD00EC30BD
:101AAA00F5008430F6008831A5208D3120005D08CC
:101ABA005E04031D682DFD30F5008430F600883180
:101ACA00A5208D318E2D20005D08F2005E08F300FE
:101ADA00F401F5010030F9000330F8003330F70063
:101AEA003330F6008E31F6268D3175082000DC0081
:101AFA007408DB007308DA007208D9005C08BF00BA
:101B0A005B08BE005A08BD005908BC008E31772612
:101B1A008D31F930F5008430F6008831A520210096
:101B2A009D012200970108001930F8007808F60094
:101B3A003F30F9007908F700683089310F218D317B
:101B4A001B30F8007808F6001830F9007908F70019
:101B5A00683089310F218D311C30F8007808F60081
:101B6A001830F9007908F700683089310F218D3172
:101B7A002000A301A4012000240885002308840072
:101B8A00DB3084078330853D0008F8007808A5001B
:101B9A000130A3070030A43D250A0319DE2D2508CC
:101BAA00F8007808F600F701683089310F218D3185
:101BBA00C02D6B30F8007808F6000230F900790879
:101BCA00F700683089310F218D316C30F8007808C0
:101BDA00F600F701683089310F218D313830F8006D
:101BEA007808F600F701F70A683089310F218D313C
:101BFA008230F5008430F6008831A52008002000E4
:101C0A00BF1F1C2E2D30893194218E3120003C09B2
:101C1A00D2003D09D3003E09D4003F09D500D20ABB
:101C2A000319D30A0319D40A0319D50A242E3F0823
:101C3A00D5003E08D4003D08D3003C08D20000304D
:101C4A00F5000030F4000030F3000A30F2005508C5
:101C5A00F9005408F8005308F7005208F6008E31CC
:101C6A00F6268E3175082000B6007408B500730890
:101C7A00B4007208B3000A30B7000030B800403030
:101C8A008A3149228E314030F5000030F600883121
:101C9A00A5208E312E30893194218E310A30F200FE
:101CAA000030F30020005308F5005208F4008A318E
:101CBA001D228E3173082000D1007208D00051080D
:101CCA00A1005008A0000A30A2000030A300403052
:101CDA008C31D1248E314030F5000030F600883145
:101CEA00A52008002000BF1F8F2E2D308931942196
:101CFA008E3120003C09D2003D09D3003E09D400B0
:101D0A003F09D500D20A0319D30A0319D40A0319C1
:101D1A00D50A972E3F08D5003E08D4003D08D300C7
:101D2A003C08D2000030F5000030F4000030F30027
:101D3A006430F2005508F9005408F8005308F70017
:101D4A005208F6008E31F6268E3175082000B6004C
:101D5A007408B5007308B4007208B3000A30B700FB
:101D6A000030B80040308A3149228E314030F500C7
:101D7A000030F6008831A5208E312E308931942129
:101D8A008E316430F2000030F30020005308F50071
:101D9A005208F4008A311D228E3173082000D100C6
:101DAA007208D000003051020A3003195002031899
:101DBA00E22E3030893194218E3120005108A10061
:101DCA005008A0000A30A2000030A30040308C3135
:101DDA00D1248E314030F5000030F6008831A5203C
:101DEA0008002000A201F51F072FF209F309F409E0
:101DFA00F509F20A0319F30A0319F40A0319F50A91
:101E0A00A201A20AF91F182FF609F709F809F90918
:101E1A00F60A0319F70A0319F80A0319F90A01302D
:101E2A00A0002008A2060030A6000030A50000305D
:101E3A00A4000030A3007508740473047204031923
:101E4A00612FA101A10AF51B362F0130F235F30DDE
:101E5A00F40DF50D890B2B2F0130A0002008A107E6
:101E6A00282F0130A335A40DA50DA60D890B372FF8
:101E7A0075087902031D4B2F74087802031D4B2F36
:101E8A0073087702031D4B2F72087602031C562F24
:101E9A007208F6027308F73B7408F83B7508F93BB9
:101EAA0023140130F536F40CF30CF20C890B572F7E
:101EBA000130A102031D362F220803196F2FA3092F
:101ECA00A409A509A609A30A0319A40A0319A50ABC
:101EDA000319A60A2608F5002508F4002408F300C9
:101EEA002308F200080000302000B7000030B600D6
:101EFA000030B5000030B4000030BB000030BA003A
:101F0A008030B9000030B8000030B3000030B200B1
:101F1A000030B1000F30B0003808A0003908A10025
:101F2A003A08A2003B08A3003408A4003508A5001B
:101F3A003608A6003708A7000130A435A50DA60D5E
:101F4A00A70D890BA22F2408A0072508A13D260862
:101F5A00A23D2708A33D3308AB003208AA00310886
:101F6A00A9003008A8000130B0020030B13BB23BF2
:101F7A00B33B280AC42FA035A10DA20DA30D890BCE
:101F8A00C02F2308AF002208AE002108AD002008A8
:101F9A00AC002F087502031DDC2F2E087402031DE6
:101FAA00DC2F2D087302031DDC2F2C087202031C80
:101FBA00EE2F3808B4073908B53D3A08B63D3B0854
:101FCA00B73D2C08F2022D08F33B2E08F43B2F08EC
:101FDA00F53B0130BB36BA0CB90CB80C890BEF2FA4
:101FEA003B083A0439043804031D912F3508F300DD
:061FFA003408F2000800AB
:020000040001F9
:04000E00E4EFFFFE1E
:10E000000000000000000000000000000000000010
:00000001FF
